:020000040800F2
:1000000000500020594F0008191800081B1800085C
:100010001D1800081F180008211800080000000023
:10002000000000000000000000000000231800088D
:1000300025180008000000002718000829180008EB
:10004000A14F0008A14F0008A14F0008A14F0008D0
:10005000A14F0008A14F000831180008A14F000867
:10006000A14F0008A14F0008A14F0008A14F0008B0
:10007000A14F0008A14F0008A14F0008A14F0008A0
:10008000A14F0008A14F0008A14F0008A14F000890
:10009000A14F0008A14F0008A14F0008A14F000880
:1000A000A14F0008A14F0008A14F0008A14F000870
:1000B000A14F0008A14F0008A14F0008A14F000860
:1000C000A14F0008A14F0008A14F0008A14F000850
:1000D000A14F0008A14F0008A14F0008A14F000840
:1000E000A14F0008A14F0008A14F00080000000028
:1000F0000000000000000000000000000000000000
:0C01000000000000000000005FF808F1A3
:1001100010B5054C237833B9044B13B10448AFF341
:1001200000800123237010BD4C030020000000005C
:10013000C8A6000808B5034B1BB103490348AFF339
:10014000008008BD0000000050030020C8A6000881
:10015000034613F8012B002AFBD1181A0138704707
:1001600081F0004102E000BF83F0004330B54FEA68
:1001700041044FEA430594EA050F08BF90EA020FD5
:100180001FBF54EA000C55EA020C7FEA645C7FEA68
:10019000655C00F0E2804FEA5454D4EB5555B8BF8B
:1001A0006D420CDD2C4480EA020281EA030382EAFC
:1001B000000083EA010180EA020281EA0303362D8E
:1001C00088BF30BD11F0004F4FEA01314FF4801C61
:1001D0004CEA113102D0404261EB410113F0004F73
:1001E0004FEA03334CEA133302D0524263EB43032A
:1001F00094EA050F00F0A780A4F10104D5F1200EC8
:100200000DDB02FA0EFC22FA05F2801841F1000122
:1002100003FA0EF2801843FA05F359410EE0A5F1F6
:1002200020050EF1200E012A03FA0EFC28BF4CF027
:10023000020C43FA05F3C01851EBE37101F00045DD
:1002400007D54FF0000EDCF1000C7EEB00006EEBEA
:100250000101B1F5801F1BD3B1F5001F0CD3490874
:100260005FEA30004FEA3C0C04F101044FEA4452CB
:1002700012F5800F80F09A80BCF1004F08BF5FEA52
:10028000500C50F1000041EB045141EA050130BD32
:100290005FEA4C0C404141EB0101013C28BFB1F544
:1002A000801FE9D291F0000F04BF01460020B1FA8F
:1002B00081F308BF2033A3F10B03B3F120020CDA62
:1002C0000C3208DD02F1140CC2F10C0201FA0CF040
:1002D00021FA02F10CE002F11402D8BFC2F1200CA5
:1002E00001FA02F120FA0CFCDCBF41EA0C0190405B
:1002F000E41AA2BF01EB0451294330BD6FEA0404A4
:100300001F3C1CDA0C340EDC04F11404C4F120028E
:1003100020FA04F001FA02F340EA030021FA04F3A0
:1003200045EA030130BDC4F10C04C4F1200220FAF7
:1003300002F001FA04F340EA0300294630BD21FA35
:1003400004F0294630BD94F0000F83F4801306BFFB
:1003500081F480110134013D4EE77FEA645C18BFEF
:100360007FEA655C29D094EA050F08BF90EA020F86
:1003700005D054EA000C04BF1946104630BD91EA7E
:10038000030F1EBF0021002030BD5FEA545C05D181
:100390004000494128BF41F0004130BD14F58004C0
:1003A0003CBF01F5801130BD01F0004545F0FE4134
:1003B00041F470014FF0000030BD7FEA645C1ABF69
:1003C000194610467FEA655C1CBF0B46024650EAA0
:1003D000013406BF52EA033591EA030F41F40021CC
:1003E00030BD00BF90F0000F04BF0021704730B552
:1003F0004FF4806404F132044FF000054FF0000127
:1004000050E700BF90F0000F04BF0021704730B5E7
:100410004FF4806404F1320410F0004548BF4042BC
:100420004FF000013EE700BF42004FEAE2014FEA11
:1004300031014FEA02701FBF12F07F4393F07F4FEC
:1004400081F06051704732F07F4208BF704793F0EF
:100450007F4F04BF41F40021704730B54FF4607402
:1004600001F0004521F000411CE700BF50EA010205
:1004700008BF704730B54FF000050AE050EA0102AE
:1004800008BF704730B511F0004502D5404261EB1E
:1004900041014FF4806404F132045FEA915C3FF45F
:1004A000D8AE4FF003025FEADC0C18BF03325FEAFC
:1004B000DC0C18BF033202EBDC02C2F1200300FAAD
:1004C00003FC20FA02F001FA03FE40EA0E0021FAD2
:1004D00002F11444BDE600BF70B54FF0FF0C4CF4C0
:1004E000E06C1CEA11541DBF1CEA135594EA0C0F72
:1004F00095EA0C0F00F0DEF82C4481EA030621EAAD
:100500004C5123EA4C5350EA013518BF52EA0335E7
:1005100041F4801143F4801338D0A0FB02CE4FF099
:100520000005E1FB02E506F00042E0FB03E54FF0C9
:100530000006E1FB03569CF0000F18BF4EF0010EC1
:10054000A4F1FF04B6F5007F64F5407404D25FEABD
:100550004E0E6D4146EB060642EAC62141EA555170
:100560004FEAC52040EA5E504FEACE2EB4F1FD0CB2
:1005700088BFBCF5E06F1ED8BEF1004F08BF5FEA30
:10058000500E50F1000041EB045170BD06F00046E2
:1005900046EA010140EA020081EA0301B4EB5C048F
:1005A000C2BFD4EB0C0541EA045170BD41F4801187
:1005B0004FF0000E013C00F3AB8014F1360FDEBFAC
:1005C000002001F0004170BDC4F10004203C35DA88
:1005D0000C341BDC04F11404C4F1200500FA05F30B
:1005E00020FA04F001FA05F240EA020001F00042AC
:1005F00021F0004110EBD37021FA04F642EB060122
:100600005EEA430E08BF20EAD37070BDC4F10C044B
:10061000C4F1200500FA04F320FA05F001FA04F20F
:1006200040EA020001F0004110EBD37041F10001FB
:100630005EEA430E08BF20EAD37070BDC4F1200506
:1006400000FA05F24EEA020E20FA04F301FA05F26E
:1006500043EA020321FA04F001F0004121FA04F216
:1006600020EA020000EBD3705EEA430E08BF20EAE6
:10067000D37070BD94F0000F0FD101F00046400020
:1006800041EB010111F4801F08BF013CF7D041EAA2
:10069000060195F0000F18BF704703F000465200A6
:1006A00043EB030313F4801F08BF013DF7D043EA77
:1006B0000603704794EA0C0F0CEA135518BF95EA2D
:1006C0000C0F0CD050EA410618BF52EA4306D1D1B4
:1006D00081EA030101F000414FF0000070BD50EAD3
:1006E000410606BF1046194652EA430619D094EA5D
:1006F0000C0F02D150EA013613D195EA0C0F05D147
:1007000052EA03361CBF104619460AD181EA03019A
:1007100001F0004141F0FE4141F470014FF0000052
:1007200070BD41F0FE4141F4780170BD70B54FF0ED
:10073000FF0C4CF4E06C1CEA11541DBF1CEA13556D
:1007400094EA0C0F95EA0C0F00F0A7F8A4EB05044F
:1007500081EA030E52EA03354FEA013100F0888046
:100760004FEA03334FF0805545EA131343EA12630F
:100770004FEA022245EA111545EA10654FEA0026C4
:100780000EF000419D4208BF964244F1FD0404F57D
:10079000407402D25B084FEA3202B61A65EB0305D9
:1007A0005B084FEA32024FF480104FF4002CB6EB96
:1007B000020E75EB030E22BFB61A754640EA0C0016
:1007C0005B084FEA3202B6EB020E75EB030E22BF56
:1007D000B61A754640EA5C005B084FEA3202B6EB97
:1007E000020E75EB030E22BFB61A754640EA9C0056
:1007F0005B084FEA3202B6EB020E75EB030E22BF26
:10080000B61A754640EADC0055EA060E18D04FEAE3
:10081000051545EA16754FEA06164FEAC30343EA83
:1008200052734FEAC2025FEA1C1CC0D111F4801F50
:100830000BD141EA00014FF000004FF0004CB6E749
:1008400011F4801F04BF01430020B4F1FD0C88BFE8
:10085000BCF5E06F3FF6AFAEB5EB030C04BFB6EBF3
:10086000020C5FEA500C50F1000041EB045170BDE6
:100870000EF0004E4EEA113114EB5C04C2BFD4EB13
:100880000C0541EA045170BD41F480114FF0000E97
:10089000013C90E645EA060E8DE60CEA135594EA13
:1008A0000C0F08BF95EA0C0F3FF43BAF94EA0C0F16
:1008B0000AD150EA01347FF434AF95EA0C0F7FF48B
:1008C00025AF104619462CE795EA0C0F06D152EADF
:1008D00003353FF4FDAE1046194622E750EA4106C3
:1008E00018BF52EA43067FF4C5AE50EA41047FF4D4
:1008F0000DAF52EA43057FF4EBAE12E74FF0FF3C39
:1009000006E000BF4FF0010C02E000BF4FF0010C09
:100910004DF804CD4FEA410C7FEA6C5C4FEA430C82
:1009200018BF7FEA6C5C1BD001B050EA410C0CBFD1
:1009300052EA430C91EA030F02BF90EA020F002033
:10094000704710F1000F91EA030F58BF994208BF9A
:1009500090422CBFD8176FEAE37040F00100704757
:100960004FEA410C7FEA6C5C02D150EA013C07D1AE
:100970004FEA430C7FEA6C5CD6D152EA033CD3D0F9
:100980005DF8040B704700BF8446104662468C46F3
:100990001946634600E000BF01B5FFF7B7FF002826
:1009A00048BF10F1000F01BD4DF808EDFFF7F4FF4F
:1009B0000CBF012000205DF808FB00BF4DF808EDDA
:1009C000FFF7EAFF34BF012000205DF808FB00BFFD
:1009D0004DF808EDFFF7E0FF94BF012000205DF81F
:1009E00008FB00BF4DF808EDFFF7CEFF94BF0120D4
:1009F00000205DF808FB00BF4DF808EDFFF7C4FFCD
:100A000034BF012000205DF808FB00BF4FEA410C15
:100A10007FEA6C5C02D150EA013C0AD14FEA430CF8
:100A20007FEA6C5C02D152EA033C02D14FF0000035
:100A300070474FF0010070474FEA410212F5001273
:100A400015D211D56FF47873B3EB625212D94FEA15
:100A5000C12343F0004343EA505311F0004F23FAFF
:100A600002F018BF404270474FF00000704750EA54
:100A7000013005D111F0004008BF6FF00040704711
:100A80004FF00000704700BF4A0011D212F500126B
:100A900011D20DD56FF47873B3EB62520ED44FEAD6
:100AA000C12343F0004343EA505323FA02F0704756
:100AB0004FF00000704750EA013002D14FF0FF3094
:100AC00070474FF0000070474FEA4102B2F1E04337
:100AD00024BFB3F5001CDCF1FE5C0DD901F0004C25
:100AE0004FEAC0024CEA5070B2F1004F40EB830075
:100AF00008BF20F00100704711F0804F21D113F1A1
:100B00003872BCBF01F00040704741F480114FEAD9
:100B10005252C2F11802C2F1200C10FA0CF320FA62
:100B200002F018BF40F001004FEAC1234FEAD3237F
:100B300003FA0CFC40EA0C0023FA02F34FEA4303E9
:100B4000CCE77FEA625307D150EA01331EBF4FF072
:100B5000FE4040F44000704701F0004040F0FE408D
:100B600040F40000704700BF80F0004002E000BF8A
:100B700081F0004142001FBF5FEA410392EA030F88
:100B80007FEA226C7FEA236C6AD04FEA1262D2EBD2
:100B90001363C1BFD218414048404140B8BF5B42D7
:100BA000192B88BF704710F0004F40F4000020F070
:100BB0007F4018BF404211F0004F41F4000121F086
:100BC0007F4118BF494292EA030F3FD0A2F10102D0
:100BD00041FA03FC10EB0C00C3F1200301FA03F10E
:100BE00000F0004302D5494260EB4000B0F5000F31
:100BF00013D3B0F1807F06D340084FEA310102F1F0
:100C00000102FE2A51D2B1F1004F40EBC25008BFA1
:100C100020F0010040EA03007047490040EB00006B
:100C2000013A28BFB0F5000FEDD2B0FA80FCACF16C
:100C3000080CB2EB0C0200FA0CF0AABF00EBC25099
:100C400052421843BCBFD0401843704792F0000F87
:100C500081F4000106BF80F400000132013BB5E7DA
:100C60004FEA41037FEA226C18BF7FEA236C21D050
:100C700092EA030F04D092F0000F08BF08467047B5
:100C800090EA010F1CBF0020704712F07F4F04D183
:100C9000400028BF40F00040704712F100723CBF96
:100CA00000F50000704700F0004343F0FE4040F4C0
:100CB000000070477FEA226216BF08467FEA23637E
:100CC0000146420206BF5FEA412390EA010F40F469
:100CD000800070474FF0000304E000BF10F00043B5
:100CE00048BF40425FEA000C08BF704743F096439C
:100CF00001464FF000001CE050EA010208BF7047B7
:100D00004FF000030AE000BF50EA010208BF70473D
:100D100011F0004302D5404261EB41015FEA010C52
:100D200002BF84460146002043F0B64308BFA3F14A
:100D30008053A3F50003BCFA8CF2083AA3EBC2532C
:100D400010DB01FA02FC634400FA02FCC2F120024B
:100D5000BCF1004F20FA02F243EB020008BF20F082
:100D60000100704702F1200201FA02FCC2F12002E8
:100D700050EA4C0021FA02F243EB020008BF20EADD
:100D8000DC7070474FF0FF0C1CEAD0521EBF1CEA0B
:100D9000D15392EA0C0F93EA0C0F6FD01A4480EAF9
:100DA000010C400218BF5FEA41211ED04FF00063E2
:100DB00043EA501043EA5111A0FB01310CF000400E
:100DC000B1F5000F3EBF490041EAD3715B0040EA34
:100DD000010062F17F02FD2A1DD8B3F1004F40EB04
:100DE000C25008BF20F00100704790F0000F0CF0D7
:100DF000004C08BF49024CEA502040EA51207F3A9B
:100E0000C2BFD2F1FF0340EAC250704740F4000075
:100E10004FF00003013A5DDC12F1190FDCBF00F066
:100E200000407047C2F10002410021FA02F1C2F114
:100E3000200200FA02FC5FEA310040F1000053EAB0
:100E40004C0308BF20EADC70704792F0000F00F0FE
:100E5000004C02BF400010F4000F013AF9D040EA04
:100E60000C0093F0000F01F0004C02BF490011F498
:100E7000000F013BF9D041EA0C018FE70CEAD15396
:100E800092EA0C0F18BF93EA0C0F0AD030F0004C16
:100E900018BF31F0004CD8D180EA010000F00040CA
:100EA000704790F0000F17BF90F0004F084691F088
:100EB000000F91F0004F14D092EA0C0F01D14202C2
:100EC0000FD193EA0C0F03D14B0218BF084608D18B
:100ED00080EA010000F0004040F0FE4040F40000D5
:100EE000704740F0FE4040F4400070474FF0FF0C68
:100EF0001CEAD0521EBF1CEAD15392EA0C0F93EAAF
:100F00000C0F69D0A2EB030280EA010C49024FEA00
:100F1000402037D04FF0805343EA111143EA1013B9
:100F20000CF000408B4238BF5B0042F17D024FF471
:100F3000000C8B4224BF5B1A40EA0C00B3EB510F4C
:100F400024BFA3EB510340EA5C00B3EB910F24BF35
:100F5000A3EB910340EA9C00B3EBD10F24BFA3EBBA
:100F6000D10340EADC001B0118BF5FEA1C1CE0D182
:100F7000FD2A3FF650AF8B4240EBC25008BF20F035
:100F8000010070470CF0004C4CEA50207F32C2BF89
:100F9000D2F1FF0340EAC250704740F400004FF026
:100FA0000003013A37E792F0000F00F0004C02BF57
:100FB000400010F4000F013AF9D040EA0C0093F021
:100FC000000F01F0004C02BF490011F4000F013B7B
:100FD000F9D041EA0C0195E70CEAD15392EA0C0FE3
:100FE00008D142027FF47DAF93EA0C0F7FF470AF1B
:100FF000084676E793EA0C0F04D14B023FF44CAF5E
:1010000008466EE730F0004C18BF31F0004CCAD1F2
:1010100030F000427FF45CAF31F000437FF43CAF2E
:101020005FE700BF4FF0FF3C06E000BF4FF0010C50
:1010300002E000BF4FF0010C4DF804CD4FEA400232
:101040004FEA41037FEA226C18BF7FEA236C11D07C
:1010500001B052EA530C18BF90EA010F58BFB2EB2F
:10106000030088BFC81738BF6FEAE17018BF40F0AF
:10107000010070477FEA226C02D15FEA402C05D163
:101080007FEA236CE4D15FEA412CE1D05DF8040BE8
:10109000704700BF844608466146FFE70FB5FFF77B
:1010A000C9FF002848BF10F1000F0FBD4DF808ED33
:1010B000FFF7F4FF0CBF012000205DF808FB00BF24
:1010C0004DF808EDFFF7EAFF34BF012000205DF87E
:1010D00008FB00BF4DF808EDFFF7E0FF94BF0120CB
:1010E00000205DF808FB00BF4DF808EDFFF7D2FFC8
:1010F00094BF012000205DF808FB00BF4DF808ED0B
:10110000FFF7C8FF34BF012000205DF808FB00BFD7
:101110004FEA4002B2F1FE4F0FD34FF09E03B3EB04
:1011200012620DD94FEA002343F0004310F0004F44
:1011300023FA02F018BF404270474FF0000070479A
:1011400012F1610F01D1420205D110F0004008BF39
:101150006FF0004070474FF00000704753B94AB934
:10116000002908BF00281CBF4FF0FF314FF0FF30AF
:1011700000F0AEB9ADF1080C6DE904CE00F03EF818
:10118000DDF804E0DDE9022304B0704738B5054618
:101190000C460022002328462146FFF70FFC28B901
:1011A00028462146BDE8384000F00AB8284604F138
:1011B000004100F005F8404261EB410138BD00BF3D
:1011C000D0B500220B4B06460F46FFF785F9FFF717
:1011D0005BFC0446FFF706F90022074BFFF77CF99A
:1011E00002460B4630463946FEF7BEFFFFF74CFC81
:1011F0002146D0BD0000F03D0000F0412DE9F04750
:10120000089E0D4604468846002B4DD18A429446DE
:1012100068D9B2FA82F252B101FA02F3C2F12001A6
:1012200020FA01F10CFA02FC41EA030894404FEA6B
:101230001C41B8FBF1F71FFA8CFE01FB178807FB76
:101240000EF0230C43EA084398420AD91CEB03032F
:1012500007F1FF3580F01E81984240F21B81023F6A
:1012600063441B1AB3FBF1F001FB103300FB0EFECD
:10127000A4B244EA0344A6450AD91CEB040400F1D5
:10128000FF3380F00981A64540F2068164440238AC
:101290000021A4EB0E0440EA07401EB10023D44015
:1012A000C6E90043BDE8F0878B4208D9002E00F064
:1012B000EE800021C6E900050846BDE8F087B3FAD4
:1012C00083F100294AD1AB4202D3824200F2FC8072
:1012D000841A65EB030301209846002EE2D0C6E98C
:1012E0000048DFE702B9FFDEB2FA82F2002A40F0DE
:1012F0009180A1EB0C0001214FEA1C471FFA8CFEE4
:10130000B0FBF7F307FB1300250C45EA00450EFB85
:1013100003F0A84208D91CEB050503F1FF3802D2FF
:10132000A84200F2CE8043462D1AB5FBF7F007FB2A
:1013300010550EFB00FEA4B244EA0544A64508D9A8
:101340001CEB040400F1FF3502D2A64500F2B68082
:101350002846A4EB0E0440EA03409EE7C1F12007B3
:101360008B4022FA07FC4CEA030C25FA07FA4FEAF5
:101370001C49BAFBF9F820FA07F309FB18AA8D40BB
:101380001FFA8CFE1D4300FA01F308FB0EF02C0C33
:1013900044EA0A44A04202FA01F20BD91CEB04040D
:1013A00008F1FF3A80F08880A04240F28580A8F1E1
:1013B00002086444241AB4FBF9F009FB104400FB52
:1013C0000EFEADB245EA0444A64508D91CEB040460
:1013D00000F1FF356CD2A6456AD90238644440EA70
:1013E0000840A0FB0295A4EB0E04AC42C846AE46F2
:1013F00056D353D0002E69D0B3EB080264EB0E0431
:1014000022FA01F304FA07F71F43CC40C6E900743F
:10141000002147E70CFA02FCC2F1200125FA01F392
:101420004FEA1C4720FA01F195400D43B3FBF7F159
:1014300007FB11331FFA8CFE280C40EA034001FB26
:101440000EF3834204FA02F408D91CEB000001F108
:10145000FF382FD283422DD902396044C01AB0FB25
:10146000F7F307FB1300ADB245EA004503FB0EF0AE
:10147000A84208D91CEB050503F1FF3816D2A84293
:1014800014D9023B6544281A43EA014138E7314642
:10149000304607E72F46E4E61846F9E64B45A9D261
:1014A000B9EB020865EB0C0E0138A3E74346EAE707
:1014B000284694E74146D1E7D0467BE764440238AA
:1014C00047E7023B65442FE7084606E73146E9E671
:1014D000704700BF10B582B002F0F4FA224B1B68CF
:1014E0009B6913F0020F10D10421204801F037FA54
:1014F00014210C2002F02AF91D4B012200920ECB80
:101500001C4802F00BF9002421E0174800F03AFCD7
:10151000012000F04DFD00F0FDF802F0D3FAE3E702
:10152000C4EB041253009BB2013401220192C4EBBC
:10153000041101FA02F292B200921C2220213F20F3
:1015400002F052F9642000F033FD02F047F80B2C52
:10155000E6DD4FF4FA7000F02BFD002002F030F8C9
:1015600002F03CF802B010BD88030020000C0140DE
:101570001CC10008E0A60008104B9B6953B1104A3B
:101580001378013303F0010348BF5B4213700B4B28
:1015900000229A610A4B1B78012B07D0022B09D03D
:1015A00003B17047054B01225A617047034B01227A
:1015B0001A617047014B01221A60F2E768030020AC
:1015C00084030020012800D0704708B50121044899
:1015D00001F0B8F9012800D008BDFFF7CDFFFBE707
:1015E0000008014072B6FEE700B591B02822002144
:1015F00006A803F029FD00230193029303930493AB
:101600000593012206924FF4803307930A92022237
:101610000D920E934FF4E0130F9306A800F0F2FC26
:1016200080B90F23019302210291002303934FF409
:1016300080620492059301A800F016FF20B911B052
:101640005DF804FBFFF7CEFFFFF7CCFF08B500F015
:101650008BFCFFF7C9FF00F009F800F05BF803F01E
:10166000ABFBFFF737FF01F05DFFFCE7F0B589B09A
:1016700000240494059406940794224B9A6942F03E
:1016800020029A619A6902F020020192019A9A69F5
:1016900042F004029A619A6902F004020292029AEC
:1016A0009A6942F008029A619B6903F00803039368
:1016B000039B154D22468421284601F04AF9012258
:1016C0004021284601F045F9012704970F4B059367
:1016D0000226069604A90E4800F0A2FFC423049334
:1016E00005970694079604A9284600F099FF22461C
:1016F0002146062001F05CF9062001F091F909B0BD
:10170000F0BD00BF00100240000C014000001110AD
:101710000008014008B50B480B4B03600B4B4360BE
:1017200000238360C3604FF48042026143618361A0
:10173000C361036200F048FA00B908BDFFF752FF29
:10174000FBE700BF8803002000540040801A060019
:1017500030B587B000230293039304930593026886
:101760001A4B9A4201D007B030BD0446184DAB6900
:1017700043F00803AB61AB6903F008030093009BDF
:101780004FF440730293122303930323059302A99A
:10179000104800F045FF104A536843F0E06343F0FF
:1017A00002035360EB6943F40013EB61EB6903F44C
:1017B00000130193019B2268136843F400431360F4
:1017C0002268136823F400431360CCE70054004000
:1017D00000100240000C01400000014002680B4B69
:1017E0009A4200D0704710B5094AD36923F4001318
:1017F000D361084C4FF48071204601F023F84FF478
:101800000071204601F01EF810BD00BF00540040DA
:1018100000100240000C0140FEE7FEE7FEE7FEE795
:10182000FEE770477047704708B500F0AFFB08BD92
:1018300008B5012001F09CF808BD000082B00E4BF5
:101840009A6942F001029A619A6902F001020092DB
:10185000009ADA6942F08052DA61DB6903F0805362
:101860000193019B054A536823F0E06343F0007342
:10187000536002B0704700BF0010024000000140FA
:1018800003685A6912F4806F01D1002070476FF429
:1018900080625A6100230363202280F83D2080F893
:1018A0003E30026C42F00402026480F83C300120B9
:1018B00070472DE9F04106460C46174698463BE036
:1018C00000F070FB069BC01A404502D8B8F1000F2B
:1018D00032D1012D18D033689B6924EA03039BB2EF
:1018E000B3FA83F35B099F4226D10023336320229E
:1018F00086F83D2086F83E30326C42F02002326499
:1019000086F83C30012027E033685B6924EA030352
:101910009BB2B3FA83F35B09E5E733685B6924EABA
:10192000030C1FFA8CFCBCFA8CFC4FEA5C1C67456C
:1019300011D1B8F1FF3FC3D1C4F30745012DECD05D
:1019400033689B6924EA030C1FFA8CFCBCFA8CFCFC
:101950004FEA5C1CEBE70020BDE8F0812DE9F8437D
:1019600005460E469046994653E01A6842F40072C6
:101970001A602B686FF480625A6100232B63202267
:1019800085F83D2085F83E302A6C42F004022A6436
:1019900085F83C3001204AE000F004FBA0EB090090
:1019A000404502D8B8F1000F33D1012F17D02B6872
:1019B0009B6926EA03039BB2003B18BF012343B394
:1019C00000232B63202285F83D2085F83E302A6CC9
:1019D00042F020022A6485F83C30012027E02B6881
:1019E0005B6926EA03039BB2003B18BF0123E6E7CD
:1019F0002B689C6926EA0404A4B2003C18BF0124A9
:101A0000A4B12B685A6912F4806FAED1B8F1FF3FD0
:101A1000C2D1C6F30747012FEAD12B685C6926EAD9
:101A20000404A4B2003C18BF0124E9E70020BDE88B
:101A3000F88370B504460D46164623685B6913F0BB
:101A4000800F21D12046FFF71BFFF8B9B5F1FF3F0A
:101A5000F3D000F0A7FA801BA84201D8002DECD1EA
:101A600023685B6913F0800FE7D1002323632022F2
:101A700084F83D2084F83E30226C42F0200222643B
:101A800084F83C30012000E0002070BD0120FCE71C
:101A90002DE9F04385B004460D4691461F46DDF81A
:101AA00030800D9E0368196841F4807119600096BA
:101AB000434600224FF00111FFF7FBFE60B9236897
:101AC00005F0FE051D613346424626492046FFF7D4
:101AD00045FF68B1012008E023681B6813F4807F8C
:101AE00002D04FF400732364032005B0BDE8F083F7
:101AF0000023039323685A6903929B690393039B12
:101B0000324641462046FFF794FF30B9012F0FD1EE
:101B100023685FFA89F61E61E7E7236C042B01D086
:101B20000120E2E72268136843F400731360F7E7CB
:101B300023684FEA19221A61324641462046FFF7D0
:101B400078FF20B923685FFA89F61E61CDE7236C20
:101B5000042B01D00120C8E72268136843F4007306
:101B60001360F7E70200010070B504460D46164603
:101B700023685B6913F0040F21D12046FFF780FE34
:101B8000F8B9B5F1FF3FF3D000F00CFA801BA84282
:101B900001D8002DECD123685B6913F0040FE7D165
:101BA00000232363202284F83D2084F83E30226CF9
:101BB00042F02002226484F83C30012000E0002042
:101BC00070BD0120FCE70000002800F0CC8070B55B
:101BD000044690F83D30002B77D0242384F83D3024
:101BE0002268136823F0010313602268136843F42A
:101BF000004313602268136823F40043136000F06D
:101C0000EFFC62685A4B9A4264D85A4B98428CBF98
:101C100000230123002B40F0A8805749A1FB00318D
:101C20008B0C25686A6822F03F0242EA91426A60A2
:101C300021680A6A22F03F0266684D4DAE424FD8D5
:101C4000013313430B622168CA6922F44F4222F028
:101C5000FF026668464B9E424CD8431E7600B3FB9B
:101C6000F6F3013340F6FC70034278D0C3F30B0364
:101C70001343CB6121680B6823F0C003E269206A3B
:101C8000024313430B6021688B6823F4034323F062
:101C9000FF032269E068024313438B602168CB682D
:101CA00023F0FF036269A06902431343CB602268FB
:101CB000136843F00103136000202064202384F89C
:101CC0003D30206384F83E0070BD80F83C30FFF763
:101CD0003FFD82E7294B98428CBF0023012399E7FF
:101CE0004FF4967505FB03F3254DA5FB03539B09A4
:101CF0000133A6E7A368BBB9451E06EB460CB5FB4E
:101D0000FCF50135C5F30B05B5FA85F56D0945BB45
:101D1000C3B9013806EB4603B0FBF3F30133C3F359
:101D20000B0343F40043A3E7451E06EB860C0CEBC4
:101D30008C0CB5FBFCF50135C5F30B05B5FA85F543
:101D40006D09E4E7013806EB860303EB8303B0FB80
:101D5000F3F30133C3F30B0343F4404388E7042355
:101D600086E7012384E7012070470120ACE700BF2C
:101D7000A08601007F841E0083DE1B43FF083D0018
:101D8000D34D6210A8B110B50446242380F83D302D
:101D90000268136823F001031360FFF71FFD0020A2
:101DA000206484F83D00206384F83E0084F83C0001
:101DB00010BD0120704700002DE9F04383B00446B8
:101DC0000F46904699460C9E00F0ECF8054694F8B4
:101DD0003D00C0B2202803D0022003B0BDE8F0834C
:101DE0000095192301224B492046FFF762FD002888
:101DF00040F0898094F83C30012B00F0868001236C
:101E000084F83C3023681A6812F0010F03D11A6875
:101E100042F001021A602268136823F40063136021
:101E2000212384F83D30402384F83E30002323648E
:101E30000A9B6362BDF82C306385638D2385364B26
:101E4000E362019500964B46424639462046FFF72D
:101E50001FFE00285BD1238D002B35D02A4631464A
:101E60002046FFF7E6FD20BB626A236812781A61FC
:101E7000626A531C6362218D013989B22185638DA9
:101E80009BB2013B9BB263852368586910F0040F35
:101E9000E1D00029DFD052781A61636A01336362AE
:101EA000238D013B2385638D9BB2013B9BB26385F0
:101EB000D1E7236C042B01D001208EE72268136840
:101EC00043F400731360F7E72A4631462046FFF7D4
:101ED0004BFE50B1236C042B01D001207DE722681A
:101EE000136843F400731360F7E72268136843F440
:101EF00000731360202384F83D30002384F83E30C3
:101F000084F83C3069E7022067E7022065E701209A
:101F100063E700BF020010000000FFFF10B5044699
:101F20000E4B18784FF47A73B3FBF0F30C4A106839
:101F3000B0FBF3F000F082FD68B90F2C01D901204D
:101F40000AE0002221464FF0FF3000F031FD054B42
:101F50001C60002000E0012010BD00BF0000002038
:101F6000080000200400002008B5074A136843F069
:101F700010031360032000F009FD0F20FFF7CEFFD0
:101F8000FFF75CFC002008BD00200240034A1168F6
:101F9000034B1B780B441360704700BFDC03002029
:101FA00000000020014B1868704700BFDC030020D0
:101FB00038B50446FFF7F6FF0546B4F1FF3F02D0FF
:101FC000044B1B781C44FFF7EDFF401BA042FAD3E3
:101FD00038BD00BF0000002082B0084B1B68084AD3
:101FE000A2FB03235B0A00FB03F3019300BF019BE9
:101FF0005A1E0192002BF9D102B070470800002050
:10200000D34D6210002800F0F18170B582B0044613
:10201000036813F0010F2CD0994B5B6803F00C039D
:10202000042B1DD0964B5B6803F00C03082B12D0D9
:102030006368B3F5803F41D0002B55D103F1804355
:1020400003F504331A6822F480321A601A6822F405
:1020500080221A6037E08A4B5B6813F4803FE7D038
:10206000874B1B6813F4003F03D06368002B00F01C
:10207000BF81236813F0020F75D0814B5B6813F0AA
:102080000C0F5FD07E4B5B6803F00C03082B54D021
:102090002369002B00F08A807A4B01221A60FFF737
:1020A00081FF0546764B1B6813F0020F75D1FFF7D1
:1020B00079FF401B0228F5D903209EE1704A13687E
:1020C00043F480331360636843B3FFF76BFF054647
:1020D0006B4B1B6813F4003FCBD1FFF763FF401B32
:1020E0006428F5D9032088E1B3F5A02F09D0644B0B
:1020F0001A6822F480321A601A6822F480221A6068
:10210000E1E703F18043A3F53C331A6842F48022EF
:102110001A601A6842F480321A60D4E7FFF742FF6F
:102120000546574B1B6813F4003FA2D0FFF73AFF58
:10213000401B6428F5D903205FE1514B5B6813F421
:10214000803FA5D14E4B1B6813F0020F03D02369CB
:10215000012B40F04F814A4A136823F0F80361696C
:1021600043EAC1031360236813F0080F33D0A36957
:10217000002B5CD0434B0122C3F88024FFF712FFF1
:1021800005463F4B5B6A13F0020F21D1FFF70AFFB0
:10219000401B0228F5D903202FE1394A136823F0A8
:1021A000F803616943EAC1031360DCE7354B0022A1
:1021B0001A60FFF7F7FE0546314B1B6813F0020F5C
:1021C000D1D0FFF7EFFE401B0228F5D9032014E120
:1021D0000120FFF701FF236813F0040F00F0968041
:1021E000274BDB6913F0805F34D1254BDA6942F06D
:1021F0008052DA61DB6903F080530193019B012572
:10220000214B1B6813F4807F26D0E368012B3DD05F
:10221000002B53D103F1804303F504331A6A22F0F3
:1022200001021A621A6A22F004021A6233E0154BA4
:102230000022C3F88024FFF7B5FE0546104B5B6A09
:1022400013F0020FC7D0FFF7ADFE401B0228F5D9EF
:102250000320D2E00025D3E70B4A136843F48073D0
:102260001360FFF79FFE0646074B1B6813F4807F41
:10227000CBD1FFF797FE801B6428F5D90320BCE083
:102280000010024000004242007000405F4A136AA2
:1022900043F001031362E36833B3FFF783FE06469E
:1022A0005A4B1B6A13F0020F2FD1FFF77BFE801BE6
:1022B00041F288339842F3D903209EE0052B09D0E0
:1022C000524B1A6A22F001021A621A6A22F00402C0
:1022D0001A62E0E74D4B1A6A42F004021A621A6A67
:1022E00042F001021A62D6E7FFF75CFE0646474B52
:1022F0001B6A13F0020F08D0FFF754FE801B41F257
:1023000088339842F3D9032077E0E5B9E369002BDD
:1023100072D03E4A526802F00C02082A56D0022BB4
:1023200017D03B4B00221A66FFF73CFE0446374BA2
:102330001B6813F0007F47D0FFF734FE001B022814
:10234000F5D9032059E0314AD36923F08053D36192
:10235000DCE72F4B00221A66FFF724FE05462B4BC5
:102360001B6813F0007F06D0FFF71CFE401B0228FD
:10237000F5D9032041E0236AB3F5803F1AD0234901
:102380004B6823F47413226A606A024313434B6060
:102390001F4B01221A66FFF705FE04461B4B1B6804
:1023A00013F0007F0ED1FFF7FDFD001B0228F5D9C9
:1023B000032022E0154A536823F40033A1680B433D
:1023C0005360DCE7002018E0002016E0012B16D057
:1023D0000E4B5B6803F48031226A914211D103F401
:1023E0007013626A93420ED1002006E0012070470C
:1023F000012002E0012000E0002002B070BD0120B9
:10240000FBE70120F9E70120F7E700BF00100240D9
:10241000000042420F4B5B6803F00C02082A01D017
:102420000D487047C3F383420C49885C13F4803F26
:102430000BD0084B5B68C3F34043094AD35C064AA0
:1024400002FB00F0B0FBF3F07047064B03FB00F01B
:10245000704700BF0010024000127A00E8A6000892
:10246000F8A6000800093D00002800F0A08070B523
:102470000D460446524B1B6803F007038B420BD2F8
:102480004F4A136823F007030B431360136803F0EC
:1024900007038B4240F08D80236813F0020F17D0A2
:1024A00013F0040F04D0474A536843F4E0635360C9
:1024B000236813F0080F04D0424A536843F4605372
:1024C0005360404A536823F0F003A1680B43536004
:1024D000236813F0010F31D06368012B20D0022B49
:1024E00025D0384A126812F0020F64D035494A6884
:1024F00022F0030213434B60FFF754FD0646314BB5
:102500005B6803F00C036268B3EB820F16D0FFF731
:1025100049FD801B41F288339842F0D9032045E001
:10252000284A126812F4003FE0D101203EE0254A1B
:10253000126812F0007FD9D1012037E0204B1B68D0
:1025400003F00703AB420AD91D4A136823F00703BF
:102550002B431360136803F00703AB422DD12368AC
:1025600013F0040F06D0174A536823F4E063E168C0
:102570000B435360236813F0080F07D0114A5368C8
:1025800023F46053216943EAC1035360FFF742FF1C
:102590000C4B5B68C3F303130B4AD35CD8400B4B63
:1025A00018600B4B1868FFF7B9FC002070BD0120C4
:1025B00070470120FAE70120F8E70120F6E700BFA5
:1025C0000020024000100240FCA600080800002085
:1025D00004000020014B1868704700BF080000206D
:1025E00008B5FFF7F7FF044B5B68C3F30223034A08
:1025F000D35CD84008BD00BF001002400CA7000803
:1026000008B5FFF7E7FF044B5B68C3F3C223034A37
:10261000D35CD84008BD00BF001002400CA70008E2
:1026200070B582B00024A446A6E0804DAA4210D026
:1026300007D97F4DAA420CD005F58035AA4208D0B3
:1026400013E0A5F58015AA4203D005F57025AA422E
:1026500007D18A68002A58D0012A51D04361082442
:1026600003E0A5F58015AA42F3D0BEF1FF0F4ED8C6
:102670000646BEF1FF0F4CD84FEA8C0233680F2597
:10268000954023EA050304FA02F2134333604B68D2
:1026900013F0805F6ED0674B9A6942F001029A6135
:1026A0009B6903F001030193019B4FEA9C02951C77
:1026B000614B53F825600CF003039D000F23AB40E2
:1026C00026EA03065D4B984229D003F580639842C1
:1026D00000F08E8003F58063984200F08B8003F554
:1026E0008063984219D004231AE0CC68BDE7CC6817
:1026F0000434BAE7CC680834B7E7CC680C34B4E7E4
:1027000003610824B1E70024AFE70424ADE7061D08
:10271000AFE7ACF108029200B0E7032300E000232A
:10272000AB4033430232444D45F822304B6813F43A
:10273000801F61D0424A936843EA0E0393604B685E
:1027400013F4001F5ED03E4AD36843EA0E03D36001
:102750004B6813F4003F5BD0394A536843EA0E03D9
:1027600053604B6813F4803F58D0354A136843EAEE
:102770000E0313600CF1010C0A6832FA0CF353D00B
:10278000012303FA0CF302EA030E33EA0202F1D149
:102790004A68122A3FF649AF122A3FF666AF01A5F2
:1027A00055F822F053260008EB260008F52600080D
:1027B000072700086B2600086B2600086B26000818
:1027C0006B2600086B2600086B2600086B260008A5
:1027D0006B2600086B2600086B2600086B26000895
:1027E0006B2600086B260008EF260008FB26000871
:1027F000012395E7022393E7114A936823EA0E0326
:1028000093609CE70E4AD36823EA0E03D3609FE7E8
:102810000B4A536823EA0E035360A2E7084A136881
:1028200023EA0E031360A5E702B070BD000022107A
:10283000000031100010024000000140000801407B
:102840000004014000226DE0032500E0002505FAA8
:1028500004F4644542D0FF2B5BD80646FF2B5AD8C0
:10286000950034684FF00F0E0EFA05FE24EA0E04B0
:102870004FF0040C0CFA05FC44EA0C043460C46804
:1028800024EA0303C360013231FA02F348D0012382
:1028900093400B40F7D04FEA920E0EF10205264C02
:1028A00054F8255002F00304A4000F26A64006EABF
:1028B000050C224DA842C9D005F58065A84209D073
:1028C00005F58065A84207D005F58065A842BBD014
:1028D0000425BCE70125BAE70225B8E7184C2568AE
:1028E00025EA03052560656825EA03056560E56856
:1028F00025EA0305E560A56825EA0305A5600E4FF6
:102900000EF1020457F8245025EA060647F8246021
:10291000A1E7061DA2E7A2F1080C4FEA8C05A0E78B
:10292000F0BD013231FA02F305D0012393400B4090
:10293000F7D0F0B5AFE77047000001400008014054
:10294000000401408368194201D001207047002033
:1029500070470AB101617047090401617047C3689B
:1029600001EA030221EA030141EA024101617047E1
:1029700008B5054B5B69034200D108BD024B5861A5
:10298000FEF720FEF9E700BF00040140074AD368C4
:1029900023F4E0631B041B0C000200F4E06003431B
:1029A00043F0BF6343F40033D360704700ED00E0B1
:1029B00000B5194BDB68C3F30223C3F1070CBCF16C
:1029C000040F28BF4FF0040C03F1040EBEF1060FF4
:1029D00018D9033B4FF0FF3E0EFA0CFC21EA0C0124
:1029E00099400EFA03F322EA0303194300280BDB94
:1029F0000901C9B200F1604000F5614080F80013A0
:102A00005DF804FB0023E5E700F00F000901C9B2FF
:102A1000024B1954F4E700BF00ED00E014ED00E0B4
:102A2000002807DB00F01F02400901239340024AFF
:102A300042F82030704700BF00E100E00138B0F1FB
:102A4000807F0BD24FF0E0235861054AF02182F8D5
:102A500023100020986107221A61704701207047F7
:102A600000ED00E0704700000FB410B582B09DF893
:102A70001030072B58D8DFE803F0040C11202C3C51
:102A8000414600F0ABFD002002B0BDE8104004B0AC
:102A90007047002000F094FD0020F5E705980699A6
:102AA000079CC9B2C0B200F051FE204B0122009237
:102AB0000ECB204600F032FEE6E705980699079A0D
:102AC000089BDBB2D2B2C9B2C0B200F07FFF0020D7
:102AD000DAE705980699079A089BC0B2C9B20B4479
:102AE000024400240094DBB2D2B200F045FF20463D
:102AF000CAE70F4B18685B681844C5E70C4B986829
:102B0000DB681844C0E70A4B1B6923B1084B00225D
:102B10001A610120B8E7064B58690028B4D000229A
:102B20005A614FF0FF30AFE70020ADE728C1000841
:102B30006803002008B50120FFF796FF094B00222B
:102B400005210220FFF790FF0020FFF78DFF0520F1
:102B5000FFF78AFF20B90620FFF786FF0028F6D08E
:102B600008BD00BF14A70008C389C2881A44C280E8
:102B7000828813441BB28380B0F90A20934203DD9C
:102B80008280144B01229A61B0F90430002B18DBCB
:102B9000B0F90630022B01DD0223C380B0F9062014
:102BA000B0F90A309A4200DDC380B0F90620B0F9CE
:102BB00004309A4200DDC380B0F90630002B06DBFA
:102BC000704700238380034B01229A61E0E70023D2
:102BD000C380F5E76803002010B504460520FFF721
:102BE00043FF68B12368B4F9042003EB02135B6868
:102BF0001BB198470123237410BD00236374F9E7C8
:102C00000620FFF731FF10B100236374F4E70720BB
:102C1000FFF72AFF404200B2E0810028ECD02046B6
:102C2000FFF7A2FF01232374E6E770B590B00446D6
:102C30000D461346127B082A53D8DFE802F005152B
:102C40001C242B32403946009A6892F900201968FA
:102C5000684602F02DF86B462A4621460220FFF70F
:102C600003FFC0B210B070BD9A6812781968684648
:102C700002F01EF8EFE79A68B2F90020196868467A
:102C800002F016F8E7E79A6812881968684602F0B9
:102C90000FF8E0E79A6812681968684602F008F8C9
:102CA000D9E79A6812681968684602F001F8D2E715
:102CB0009A6812781968684601F0FAFFCBE79A68BB
:102CC0001968684601F0F4FFC5E71E689B6818683C
:102CD000FDF7AAFB02460B463146684601F0E8FFC5
:102CE000B9E79A681968684601F0E2FFB3E738B5BA
:102CF000044601234374037483800022C28002814E
:102D00008381428109E02A4600210846FFF78DFFB2
:102D10006873B4F90A30013363812268B4F90A3068
:102D2000190102EB0315525812782E2AEBD1013B00
:102D3000638138BD000000002DE9F8430746848810
:102D4000C388E41A24B20481B0F90C00844208D08C
:102D5000201A00EB80008000FDF7C0FF3C4B18609C
:102D6000BC813B4B1C6800212046FEF79FF920BB2D
:102D700021460020FDF7FCFE05464FF07651FEF798
:102D8000BDF9E8B12046FDF74FFB0022314BFDF7BE
:102D9000EDF9804689462846FDF746FB2AA3D3E98C
:102DA0000023FDF799FB02460B4640464946FDF7D6
:102DB000DDF9FDF789FE264B18604FF0FF3422E065
:102DC00025492846FEF77CF9C8B12046FDF72CFBC3
:102DD0000022204BFDF7C8F9804689462846FDF7BA
:102DE00023FB19A3D3E90023FDF776FB02460B462C
:102DF00040464946FDF7BAF9FDF766FEDBE70020DD
:102E0000D9E7013424B2032C1BDCB7F90860A619FA
:102E1000F7D4B7F90A309E4213DC04EB8405AD0009
:102E2000ADB20B4B1868FEF773F9291804313B68F3
:102E300003EB0616324609B20420FFF7F6FE707364
:102E4000DFE7BDE8F88300BF25068195438BD43FBB
:102E5000E00300200000B03F000080BD0000000043
:102E60002DE9F04F83B0037C002B00F09A80002303
:102E700003740368B0F9042003EB02135D7BED00DB
:102E800004354FF08047BA4B1F60B0F9060000EBE5
:102E9000800080000230FDF721FF0446B54B18602A
:102EA0002846FDF71BFF3946FDF764FE4FF07E51C3
:102EB000FDF75EFE0646B04B1860B0492046FDF7B0
:102EC00059FE4FF07E51FDF753FE0546AC4B18609E
:102ED000AC4B19683846FDF74BFEFDF7A5FAA2A3E7
:102EE000D3E90023FDF7F8FA00224FF08043FDF705
:102EF0003DF9FDF7E9FDA44B1860A44B1968204685
:102F0000FDF736FEFDF790FA97A3D3E90023FDF70E
:102F1000E3FA804689462046FDF786FA42464B464C
:102F2000FDF724F9FDF7D0FD994B1860994B19680E
:102F30003046FDF71DFEFDF777FA8BA3D3E900239A
:102F4000FDF7CAFA804689463046FDF76DFA4246DB
:102F50004B46FDF70BF9FDF7B7FD8F4B18608F4B14
:102F600019682846FDF704FEFDF75EFA7EA3D3E953
:102F70000023FDF7B1FA06460F462846FDF754FA3E
:102F800032463B46FDF7F2F8FDF79EFD844B186094
:102F90000223844A1370844A1370844A1370844A4B
:102FA0001370784BD3F800A05146774B1868FEF7A2
:102FB0007DF800B37B4A1378591E1170002B00F086
:102FC000B0816B4B1E6851463046FDF7D1FDFDF7D1
:102FD0002BFA65A3D3E90023FDF77EFA04460D46DC
:102FE0003046FDF721FA22462B46FDF7BFF8FDF7E4
:102FF0006BFD654B1860654B1F683946644B18685C
:10300000FEF754F800B3684A1378591E1170002B6C
:1030100000F08C81574B1E6839463046FDF7A8FDFD
:10302000FDF702FA50A3D3E90023FDF755FA044651
:103030000D463046FDF7F8F922462B46FDF796F887
:10304000FDF742FD524B1860524B1D682946524B0A
:103050001868FEF72BF800B3544A1378591E117004
:10306000002B00F06881444B1C6829462046FDF780
:103070007FFDFDF7D9F93CA3D3E90023FDF72CFA36
:10308000804689462046FDF7CFF942464B46FDF77C
:103090006DF8FDF719FD404B1860404B1C68214648
:1030A0003F4B1868FEF702F800B3414A1378591EE7
:1030B0001170002B00F04481314B1E6821463046D0
:1030C000FDF756FDFDF7B0F927A3D3E90023FDF77F
:1030D00003FA804689463046FDF7A6F942464B463C
:1030E000FDF744F8FDF7F0FC2D4B1860264BD3F8A4
:1030F000009051464846FDF73BFD06464FF076519D
:10310000FDF7FCFF002800F020815046FDF78CF908
:103110000022284BFDF72AF8804689463046FDF705
:1031200083F911A3D3E90023FDF7D6F902460B4634
:1031300040464946FDF71AF8FDF7C6FC8146114B9B
:10314000C3F80090124B1E6839463046FDF710FD5B
:1031500080464FF07651FDF7D1FF002800F017812F
:103160002AE000BFAFF3008025068195438BD43F52
:103170000C04002014040020080400200000A041DA
:1031800010040020E8030020FC030020F0030020CE
:1031900004040020E4030020F8030020EC030020D6
:1031A00000040020F5030020F7030020F4030020B2
:1031B000F60300200000B03F3846FDF735F9002245
:1031C000A94BFCF7D3FF06460F464046FDF72CF906
:1031D000A3A3D3E90023FDF77FF902460B4630464F
:1031E0003946FCF7C3FFFDF76FFC06469F4B1E6098
:1031F0009F4BD3F8008029464046FDF7B9FC0746AF
:103200004FF07651FDF77AFF002800F0E280284663
:10321000FDF70AF90022944BFCF7A8FF82468B4683
:103220003846FDF701F98EA3D3E90023FDF754F9E1
:1032300002460B4650465946FCF798FFFDF744FC02
:1032400080468C4BC3F800808B4BD3F800A02146FE
:103250005046FDF78DFC07464FF07651FDF74EFFC7
:10326000002800F0D8802046FDF7DEF800227E4BD3
:10327000FCF77CFF04460D463846FDF7D5F878A3E9
:10328000D3E90023FDF728F902460B4620462946DC
:10329000FCF76CFFFDF718FC8246784BC3F800A0E2
:1032A0004846FDF7C1F80022754BFCF75FFF044666
:1032B0000D463046FDF7B8F80022714BFCF756FF7B
:1032C00006460F464046FDF7AFF800226C4BFCF770
:1032D0004DFF804689465046FDF7A6F80022684B10
:1032E000FCF744FF82468B4640464946FDF7A4FB67
:1032F000804630463946FDF79FFB06462046294664
:10330000FDF79AFB044650465946FDF795FB0090A1
:103310004346324621460320FFF7A6FB03B0BDE833
:10332000F08F584B1A68584B1A6064E6574B1A686E
:10333000574B1A6088E6574B1A684D4B1A60ACE63B
:10334000554B1A684C4B1A60D0E654493046FDF78D
:10335000B7FE00283FF4F3AE5046FDF765F80022B3
:10336000414BFCF701FF804689463046FDF75CF88B
:103370003BA3D3E90023FDF7AFF802460B464046D6
:103380004946FCF7F3FEFDF79FFB8146D7E643492C
:103390004046FDF795FE00283FF428AF3846FDF77C
:1033A00043F80022304BFCF7DFFE06460F4640464E
:1033B000FDF73AF82AA3D3E90023FDF78DF802467A
:1033C0000B4630463946FCF7D1FEFDF77DFB06463D
:1033D0000CE732493846FDF773FE00283FF431AF61
:1033E0002846FDF721F800221F4BFCF7BDFE824660
:1033F0008B463846FDF718F819A3D3E90023FDF7EB
:103400006BF802460B4650465946FCF7AFFEFDF7F7
:103410005BFB804615E721493846FDF751FE002841
:103420003FF43BAF2046FCF7FFFF00220E4BFCF7BA
:103430009BFE04460D463846FCF7F6FF08A3D3E989
:103440000023FDF749F802460B4620462946FCF7C3
:103450008DFEFDF739FB82461FE700BFAFF300800A
:1034600025068195438BD43F0000B03FF003002038
:10347000F8030020E403002000040020EC030020F7
:103480000000E03F0C040020FC0300201404002096
:10349000040400200804002010040020000080BD67
:1034A00010B582B00024002C01DD02B010BDC4F1C3
:1034B0008003C4F14002121B00921B1B22462146CE
:1034C0000420FFF7D1FA013424B2ECE710B504462A
:1034D000FFF70DFC11E00120FFF7C6FA2046FFF7C9
:1034E0002BFC2046FFF7BCFC2046FFF7D9FF00204D
:1034F000FFF7BAFA2046FFF76FFB637C002BEAD197
:1035000010BD000008B50248FFF7E0FF08BD00BF8E
:103510002000002008B50248FFF7D8FF08BD00BF13
:103520000C00002008B50248FFF7D0FF08BD00BF1F
:103530003400002008B50249FDF724FC08BD00BF97
:10354000A7E78E3CB0F5B47F0AD9C308064AA2FBB0
:1035500003239B084FF4B47202FB130080B200B146
:1035600070471046FCE700BF176CC11600B587B066
:103570008DF817004FF0FF330293012301930DF1F3
:1035800017020092002278210248FEF715FC07B0CE
:103590005DF804FB8803002000B585B04FF0FF33D1
:1035A000029389B2019100900123402278210348BF
:1035B000FEF702FC05B05DF804FB00BF88030020A5
:1035C00008B530B900214FF48062034801F03CFD9A
:1035D00008BDFF21F7E700BF2004002010B500243C
:1035E00012E0A4F15000C0B2FFF7C0FF0020FFF7C7
:1035F000BDFF1020FFF7BAFF8021054800EBC41083
:10360000FFF7CAFF0134E4B2072CEAD910BD00BFAE
:103610002004002010F0800F0FD13F290DD8012A7F
:103620000CD0CB0800EBC31001F0070101238B4045
:10363000084A115C21EA030111547047CB0800EBE2
:10364000C31001F0070101238B40024A115C1943AA
:1036500011547047200400202DE9F04784B08146C2
:1036600004A800E90E009DF83080A9F12003DBB228
:103670005E2B48D8284B1B889DF804603344802B70
:1036800045DC254B5B889DF805A05344402B40DC6E
:1036900000251FE0204B1888598829442044B8FA97
:1036A00088F25209C9B2C0B2FFF7B4FF0134A64292
:1036B0000FD907FA04F313F4004FEBD0164B188818
:1036C0005988294420444246C9B2C0B2FFF7A2FF3C
:1036D000ECE70135AA4508D9A9F1200303FB0A53F9
:1036E000029A32F813700024E1E70B4B1A88039B0F
:1036F0003BB14B4413F8206C1644074B1E804846E0
:1037000002E0B6B2F8E7002004B0BDE8F087002080
:10371000FAE70020F8E700BF1804002030B587B0B2
:10372000044606A800E90E009DF8285000E0013488
:10373000207848B1009506AB13E90E00FFF78CFF27
:10374000034620788342F2D007B030BD014B188089
:1037500059807047180400202DE9F04F83B00446CB
:103760000E4691469B469DF830A0A2EB0008B8F1AA
:10377000000FB8BFC8F100085F1A002FB8BF7F4222
:1037800082420DD901230093B3450DD90123019342
:10379000A8EB0705524659464846FFF73BFF1BE09A
:1037A0004FF0FF330093EFE74FF0FF330193EFE764
:1037B000524631462046FFF72DFF6B007A42B2EBAE
:1037C000450F03DAED1B009A1444E4B2984503DD7B
:1037D0004544019B1E44F6B24C45E9D15E45E7D114
:1037E00003B0BDE8F08F00002DE9F04F89B0074627
:1037F00002908B4616461D469DF84C300393BDF84B
:103800004800FFF79FFE04462846FFF79BFE00EBAB
:10381000C000C0F35C08574AA2FB08384FEA98087A
:1038200004EBC403C3F35C03A2FB03234FEA930A34
:103830002046FDF74FFA044605905046FDF74AFA38
:1038400001462046FDF752FB044604904046FDF732
:1038500041FA2146FDF796FAFFF76CFE044606F0A2
:1038600039F805463046FDF739FA814601462846C3
:10387000FDF788FAFDF74CFCC0B23844C3B206939A
:10388000204605F0EFFF01464846FDF77BFAFDF7BD
:103890003FFCC0B25844C3B207930024254624E03D
:1038A0000598FFF747FE0446204606F013F8014648
:1038B0004846FDF767FAFDF72BFCC5B2029B1D4495
:1038C000EDB2204605F0CEFF01464846FDF75AFA14
:1038D000FDF71EFCC4B25C44E4B2039B0093234694
:1038E0002A4639463046FFF737FFD0452FD24046AB
:1038F000FDF7F0F9049D2946FDF744FAFFF71AFE9B
:10390000044605F0E7FF01464846FDF73BFAFDF7A0
:10391000FFFBC6B2029B1E44F6B2204605F0A2FF92
:1039200001464846FDF72EFAFDF7F2FBC7B25F44A9
:10393000FFB208F10108C245B2D04046FDF7CAF90E
:103940002946FDF71FFAFFF7F5FD0446ACE7039E95
:103950000096079B069A5946029F3846FFF7FCFEE1
:10396000009623462A4659463846FFF7F5FE09B029
:10397000BDE8F08F176CC1162DE9F04182B0054605
:103980000E4617461C469DF82080CDF800800B4659
:10399000FFF7E2FECDF8008023463A46314638462E
:1039A000FFF7DAFECDF8008023462A462146384646
:1039B000FFF7D2FECDF8008033462A46214628463E
:1039C000FFF7CAFE02B0BDE8F081000012F0800FE0
:1039D00053D13F2B53D8824253D38B4253D3F0B5AC
:1039E000CE08DD08B5EBD10F2DD0864619E0274C67
:1039F00014F800C06FEA0C0C04F800C080300EEB25
:103A0000C5148442F3D86FEA030C0CF0070CFF24B2
:103A100044FA0CFC1D4F3C5C84EA0C043C540EF14F
:103A2000010E72450DD30EEBC61001F0070CFF24FA
:103A300004FA0CFC154F3C5C84EA0C043C548030C6
:103A4000DDE70020F0BD01F00701FF2404FA01F1D9
:103A5000DB4303F0070344FA03F31940C9B200EB58
:103A6000C61304E0094CE05C4840E054013302EB2B
:103A7000C5109842F6D20020E4E7012070470120EB
:103A80007047012070470120704700BF20040020CC
:103A900010B504468120FFF769FD2046FFF766FD5B
:103AA00010BD000008B530B1054B01225A71AF209E
:103AB000FFF75CFD08BD024B00225A71AE20F7E70C
:103AC0001804002008B56420FEF772FA0020FFF702
:103AD000E9FF2020FFF74AFD0020FFF747FDB02057
:103AE000FFF744FDC820FFF741FD0020FFF73EFD32
:103AF0001020FFF73BFD4020FFF738FDFF20FFF7C8
:103B0000C7FFA120FFF732FDA620FFF72FFDA82059
:103B1000FFF72CFD3F20FFF729FDA420FFF726FD2E
:103B2000D320FFF723FD0020FFF720FDD520FFF76E
:103B30001DFDF020FFF71AFDD920FFF717FD222009
:103B4000FFF714FDDA20FFF711FD1220FFF70EFD3D
:103B5000DB20FFF70BFD2020FFF708FD8D20FFF78E
:103B600005FD1420FFF702FD0120FFF79BFF002059
:103B7000FFF726FDFFF732FD034B00221A805A8023
:103B800001221A7108BD00BF180400209A4200D219
:103B90008854704770470146002007E000EB800022
:103BA000531C0B60137803EB400030380A6813781D
:103BB000303BDBB2092BF1D970472DE9F04F83B0D0
:103BC00005460E4693461F46DDF830A00D9CDDF8F5
:103BD00038900F9B13F0030F19D1A0460192C845EE
:103BE00009D202F1010B3B4631462020A84708F1DB
:103BF00001085A46F3E7DDF804B008E0013C02F1A1
:103C000001083B4631461AF80400A8474246002CFA
:103C1000F4D10F9B13F0020F03D1104603B0BDE89F
:103C2000F08FA2EB0B034B45F7D2541C3B463146B9
:103C30002020A8472246F4E72DE9F04385B00C9DEB
:103C40000D9C9DF83890DDF83C80DDF840E0119F38
:103C5000129E16F0020F21D17FB116F0010F0CD089
:103C6000B9F1000F02D116F00C0F06D0013F04E0AD
:103C70004FF0300C05F804C00134744501D21F2CFC
:103C8000F6D916F0010F09D0BC4207D21F2C05D877
:103C90004FF0300C05F804C00134F2E716F0100FB5
:103CA00017D016F4806F04D11CB1744524D0BC42E7
:103CB00022D0B8F1100F2BD0B8F1100F33D0B8F1DB
:103CC000020F3BD01F2C04D84FF0300C05F804C075
:103CD00001341F2C07D8B9F1000F37D04FF02D0C4D
:103CE00005F804C001340396029701940095FFF78C
:103CF00064FF05B0BDE8F083B4F1010C06D0B8F163
:103D0000100F01D06446D4E7023CD2E76446D0E706
:103D100016F0200FD0D11F2CCED84FF0780C05F81C
:103D200004C00134CEE716F0200FC8D01F2CC6D82F
:103D30004FF0580C05F804C00134C3E71F2CC1D85C
:103D40004FF0620C05F804C00134BBE716F0040F15
:103D500005D04FF02B0C05F804C00134C3E716F072
:103D6000080FC0D04FF0200C05F804C00134BAE7AA
:103D7000F0B591B0169C189D1B9E0CB926F010064C
:103D800016F4806E16D064B34FF0000E12E00CF102
:103D9000300C5FFA8CFC0EF101070EF1400EEE4480
:103DA0000EF820CCB4FBF5FCAC421BD31F2F19D866
:103DB000BE466446B4FBF5FC05FB1C4C5FFA8CFC6C
:103DC000BCF1090FE3D916F0200F08D04127BC44FD
:103DD0005FFA8CFCACF10A0C5FFA8CFCDBE7612724
:103DE000F5E7274606961A9C0594199C04940395BA
:103DF0009DF85C400294019708AC0094FFF71CFF0B
:103E000011B0F0BD2DE9F04F95B009900A910B92D9
:103E10009B461E9D1F9E229FDDF88C80DDF898A09A
:103E200055EA060301D12AF0100A1AF480641FD063
:103E300055EA060330D000241AE003F13002D2B272
:103E400004F1010904F150030DEB030404F8202CE4
:103E50003A46434628463146FDF780F9BD4276EBA7
:103E600008031BD3B9F11F0F18D84C4605460E4660
:103E70003A46434628463146FDF770F9D3B2092B3E
:103E8000DBD91AF0200F05D041221A44D2B20A3AE7
:103E9000D2B2D5E76122F8E74FF00009CDF818A0BB
:103EA000259B0593249B049303979DF880300293F0
:103EB000CDF804900CAB00935B460B9A0A990998D5
:103EC000FFF7BAFE15B0BDE8F08F0000000000005B
:103ED0002DE9F04F93B083460D4614469A461C9E3A
:103EE00007961D9F089732463B4630463946FCF7F9
:103EF0005BFD002800F00C814FF0FF32AE4B3046E6
:103F00003946FCF779FD002840F002814FF0FF327E
:103F10006FF4801330463946FCF750FD002840F01E
:103F2000F78000220023079E3046089F3946FCF7A1
:103F300045FD002840F0FF80079A089B09921093E6
:103F4000209B13F48063119301D106231E93099AD9
:103F5000109BC3F30A50C3F31303164643F07F5775
:103F600047F44017A0F2FF30FCF74CFA82A3D3E9E4
:103F70000023FCF7B1FA82A3D3E90023FCF7F6F89B
:103F80008046894600228D4B30463946FCF7ECF8D6
:103F90007DA3D3E90023FCF79FFA02460B46404677
:103FA0004946FCF7E3F8FCF747FD8146FCF72AFA9F
:103FB00006460F4676A3D3E90023FCF78DFA0022CC
:103FC0007F4BFCF7D3F8FCF737FD804672A3D3E9AB
:103FD000002330463946FCF77FFA06460F46404636
:103FE000FCF710FA6EA3D3E90023FCF775FA02463A
:103FF0000B4630463946FCF7B7F806460F460246F0
:104000000B46FCF769FACDE90C0108F2FF380021F4
:104010000022CDE90A124FEA08510B9100210A91C2
:1040200032463B4630463946FCF7A0F8CDE90E0152
:1040300032463B4600204FF08041FCF795F806469B
:104040000F4600225F4BDDE90C01FCF76FFB0022FD
:104050005D4BFCF78BF802460B46DDE90C01FCF7E3
:1040600065FB0022594BFCF781F802460B46DDE95F
:104070000C01FCF75BFB02460B4630463946FCF769
:1040800075F802460B46DDE90E01FCF74FFB0022F6
:104090004F4BFCF76BF8DDE90A23FCF71DFA0646E7
:1040A0000F46CDE90A67099A109BFCF7A5FC48B1B9
:1040B00009F1FF390022444B30463946FCF736FB04
:1040C000CDE90A0109F16303C62B39D80426209BE8
:1040D00013F4006F3ED034A3D3E90023DDF824802D
:1040E0004046109F3946FCF77DFC002837D030A3AE
:1040F000D3E9002340463946FCF760FC00282ED067
:104100001E9B4B451EDDA3EB0903013B1E931BE0E9
:10411000209B04931F9B03931E9B0293079A089B6B
:10412000CDE90023534622462946584600F0BCF804
:1041300013B0BDE8F08F099607F100431093FFE636
:104140000526C4E700231E93209B43F4806320933D
:104150000026B1461F9B9E423CD29F1B3BE01E9B0C
:10416000002BF7D0119B002BF4D01E9B013B1E931C
:10417000F0E700BFAFF30080FB799F501344D33FBB
:10418000B3C8608B288AC63F61436F63A787D23F5D
:1041900071A379094F930A401655B5BBB16B024024
:1041A000EF39FAFE422EE63F2D431CEBE2361A3F72
:1041B0000000000080842E41FFFFEF7F0000F83FE9
:1041C0000000E03F00002C400000244000001840A8
:1041D0000000F03F0027209B13F0020801D006B139
:1041E0000027B9F1000F07D0DDE90A2309981099DB
:1041F000FCF79CFA09901091002200230798089977
:10420000FCF7DCFB00283BD1209B23F400630493E4
:1042100003971E9B0293099A109BCDE900235346F6
:1042200022462946584600F03FF8002E80D0209BB9
:1042300013F0200F29D04527431C0793534602460D
:1042400029463846D84789EAE973A3EBE973052282
:104250000592013E0496002203920A2202924FEA3E
:10426000D970019000935346079A29465846FFF7A4
:104270007FFDB8F1000F3FF45BAF02461F9F0CE0DB
:10428000109901F100431093BEE76527D4E7561C4F
:10429000534629462020D8473246131BBB42F6D34B
:1042A000104645E7000000002DE9F04F97B0079059
:1042B0000A9192469B46DDE92089229D42464B4663
:1042C00040464946FCF770FB002840D04FF0FF32D3
:1042D0006FF4801340464946FCF770FB002845D137
:1042E0004FF0FF329E4B40464946FCF785FB0028C5
:1042F0004BD197A3D3E9002340464946FCF77CFB0A
:1043000000285AD194A3D3E9002340464946FCF73C
:1043100055FB002851D10022002340464946FCF7B6
:104320004DFB002857D100230B93249B13F4806F7F
:104330005CD000241F2C5BD8092D59D904F15803F7
:104340006B44302203F8202C013D0134F2E7249B1A
:104350000393239B029303230193824B00935B46B9
:1043600052460A990798FFF728FC2AE1249B0393F9
:10437000239B0293042301937B4B00935B4652469D
:104380000A990798FFF719FC1BE1249B13F004031B
:104390000FD0764A7BB1042324990391239902918B
:1043A000019300925B4652460A990798FFF705FC75
:1043B00007E16F4AEEE70323EEE7249B0493239B78
:1043C00003930295CDE900895B4652460A99079806
:1043D000FFF77EFDF5E042464B4600200021FBF74B
:1043E000C3FE8046894601230B939EE70625A0E77E
:1043F00040464946FCF720FB0646FCF703F8024618
:104400000B4640464946FBF7AFFE5A4B03EBC5034C
:10441000D3E90023CDE90C23FCF75EF802460B46F6
:10442000CDE90823FCF730FB0746FBF7DBFF02462C
:104430000B46DDE90801FBF797FE02460B46CDE986
:10444000082300224C4BFCF7D7FA50B3013738460B
:10445000FBF7C8FF02460B46DDE90C01FCF7B8FA92
:1044600008B10136002755BB3046FBF7CBFF0246AB
:104470000B4640464946FBF777FE07468846002232
:104480003D4BFCF79BFA38B100223B4B3846414686
:10449000FCF7B2FA002842D016F0010F3FD00136E7
:1044A0003DE00022344BDDE90801FCF787FA0028E3
:1044B000D9D117B117F0010FD5D00137D3E71F2C91
:1044C00017D8013D2D4BA3FB0723DB08194603EB4F
:1044D0008303A7EB4303621C303304F158000DEB58
:1044E000000404F8203C092F02D90F461446E6E7E1
:1044F00014461F2C0AD86B1E45B104F158026A44B9
:10450000302102F8201C1D460134F2E71F2C06D88A
:1045100004F158036B442E2203F8202C01341F2C85
:1045200031D8174A82FB0632F317C3EBA2031A46AF
:1045300003EB8303A6EB4303611C303304F1580003
:104540000DEB000404F8203C1646DAB10C46E6E711
:104550000000000065CDCD410000000065CDCDC15B
:10456000FFFFEF7F40C1000844C1000838C10008C8
:1045700034C1000850C100080000E03FCDCCCCCCD5
:10458000676666660C46249B03F00303012B1BD071
:104590001F2C09D80B9B002B33D004F158036B441C
:1045A0002D2203F8202C0134249B0393239B029398
:1045B00001940EAB00935B4652460A990798FFF7A9
:1045C000FCFA17B0BDE8F08F239BB3B10B9B1BB96E
:1045D000249B13F00C0F12D0239B013B239319460D
:1045E00006E004F158036B44302203F8202C013418
:1045F0008C42CDD21F2CF4D9CAE72399F8E723992E
:10460000F6E7249B13F0040F07D004F158036B4422
:104610002B2203F8202C0134C6E7249B13F0080F4B
:10462000C2D004F158036B44202203F8202C01343B
:10463000BAE700BF2DE9F04F8FB0074616460D933D
:104640008846002900F0238300240D9B1878002859
:1046500000F01F83252809D0651C334622464146B9
:10466000B8470D9B01330D932C46EEE701330D93B4
:1046700000250D9B1978A1F12002102A0AD8DFE845
:1046800002F03809093D0909090909090933092E08
:1046900009092900A1F13003DBB2092B33D92A29FA
:1046A00036D000230A930D9B1A782E2A40D04FF063
:1046B000000B0D9A1378683B122B77D8DFE803F0D4
:1046C0006476D37656767676767676767276767663
:1046D0007676D80045F0010501330D93C9E745F022
:1046E000020501330D93C4E745F0040501330D9332
:1046F000BFE745F0080501330D93BAE745F0100513
:1047000001330D93B5E70DA8FFF745FA0A90CAE704
:10471000189B1A1D18921868002804DB0A900D9B3C
:1047200001330D93BFE745F0020543420A93F6E7D4
:1047300045F480655A1C0D925A78A2F13003DBB221
:10474000092B04D92A2A07D04FF0000BB1E70DA896
:10475000FFF721FA8346ACE7189B1A1D18921B68D5
:1047600023EAE37B0D9B01330D93A2E745F48071AF
:10477000531C0D9352786C2A01D00D4616E045F477
:10478000407501330D9311E045F08001531C0D93EA
:104790005278682A01D00D4608E045F0C005013383
:1047A0000D9303E045F4807501320D920D9B18784E
:1047B000A0F12503532B00F26082DFE813F05302CF
:1047C0005E025E025E025E025E025E025E025E02E9
:1047D0005E025E025E025E025E025E025E025E02D9
:1047E0005E025E025E025E025E025E025E025E02C9
:1047F0005E025E025E025E025E025E025E027301A5
:10480000530173015E025E025E025E025E025E02A0
:104810005E025E025E025E025E025E025E025E0298
:104820005E025E025E005E025E025E025E025E028A
:104830005E025E025E025E025E009A015E0073012D
:10484000530173015E025E005E025E025E025E0262
:104850005E025E0038025E025E02D3015E025E000E
:104860005E025E025E0045F4007501320D929DE726
:1048700045F4807501320D9298E7782809D05828C0
:104880003AD06F283AD062283AD025F010050A2392
:1048900000E01023582835D0692803D0642801D0BF
:1048A00025F00C0515F4806F01D025F0010569286D
:1048B0002BD0642829D015F4007F40F0968015F4A1
:1048C000807F40F0AD8015F0400F00F0BE80189A58
:1048D000111D1891127805950A990491CDF80CB024
:1048E0000293002301930092334622464146384604
:1048F000FFF73EFA044629E01023CBE70823C9E777
:104900000223C7E745F02005C6E715F4007F21D153
:1049100015F4807F42D115F0400F58D0189A111D20
:104920001891127882EAE271A1EBE27105950A987A
:104930000490CDF80CB00293D20F0192009133464F
:10494000224641463846FFF713FA04460D9B0133D1
:104950000D937AE6189A073222F0070202F1080155
:104960001891516812680846002913DB08950A9DC2
:104970000795CDF818B0049300230593C90F029151
:10498000009201903346224641463846FFF73AFAF4
:104990000446DBE7524261EB4100E7E7189A111D3C
:1049A0001891126882EAE271A1EBE27105950A980A
:1049B0000490CDF80CB00293D20F019200913346CF
:1049C000224641463846FFF7D3F90446BEE715F0C4
:1049D000800F05D0189A111D1891B2F90020A1E797
:1049E000189A111D189112689CE7189A073222F044
:1049F000070202F10801189108950A990791CDF86C
:104A000018B000210493059102910CCACDE900234E
:104A10003346224641463846FFF7F4F9044695E707
:104A2000189A111D189105950A990491CDF80CB0AA
:104A300002930023019313680093334622464146B4
:104A40003846FFF795F9044680E715F0800F04D04B
:104A5000189A111D189112883DE7189A111D189186
:104A6000126838E746281AD0189B073323F007034B
:104A700003F10802189204950A9A0392CDF808B03F
:104A8000D3E90023CDE90023334622464146384688
:104A9000FFF70AFC04460D9B01330D93D5E545F065
:104AA0002005E1E7672801D0472801D145F40065DA
:104AB000452801D0472801D145F02005189B073330
:104AC00023F0070303F10802189204950A9A03924F
:104AD000CDF808B0D3E90023CDE9002333462246C0
:104AE00041463846FFF7F4F904460D9B01330D9318
:104AF000ABE515F002051FD04FF001091898031D12
:104B0000189304F1010A3346224641460078B8471B
:104B1000BDB90D9B01330D93544696E502F1010A90
:104B2000334641462020B8474B46524603F101091F
:104B30009B45F3D81446E1E70123DDF828B022466F
:104B4000F4E75246DDF828A006E0551C33464146FE
:104B50002020B847A1462A4609F10104CA45F4D8E5
:104B60009246D6E7189B1A1D1892D3F800A0BBF105
:104B7000000F1ED14FF0FF33D14602E009F10109C9
:104B8000134699F8002012B15A1E002BF6D1A9EB5A
:104B90000A0915F480630B9302D0D94528BFD94682
:104BA00015F002030C9306D022465C46B3460B9EDA
:104BB0001DE05B46E0E722460A9C4B4607E002F117
:104BC0000109334641462020B8472B464A465D1C22
:104BD0009C42F4D8A9465C46B3460B9E07E01C46AF
:104BE0000AF1010A551C5B464146B8472A469AF825
:104BF000000020B1002EF3D0631E002CEFD114462C
:104C00005E460C9B1BB90D9B01330D931DE5DDF832
:104C100028A006E0551C334641462020B847A1464F
:104C20002A4609F10104CA45F4D81446EBE745F0D9
:104C30002105189B1A1D18921B68059508220492DD
:104C4000CDF80CB01022029200220192009333465C
:104C5000224641463846FFF78BF804460D9B013348
:104C60000D93F2E4651C3346224641462520B847A1
:104C70000D9B01330D932C46E7E4651C3346224619
:104C80004146B8470D9B01330D932C46DDE4074F99
:104C9000DAE4B44201D3721E00E0224633464146B4
:104CA0000020B84720460FB0BDE8F08F953B0008C4
:104CB0000EB400B584B0014605AA52F8043B039235
:104CC00000924FF0FF320448FFF7B4FC04B05DF8E7
:104CD00004EB03B0704700BF8D3B00080120704714
:104CE00008B500F05FF9162303604FF0FF3008BDF0
:104CF00008B54FF0FF31FFF7F3FFFEE770B50C4644
:104D00001646002506E0AFF30080214601F8010BAE
:104D100001350C46B542F6DB304670BD10464FF00B
:104D2000000C0AE000BF4FF060431B68002BF9D075
:104D30004FF060431A700CF1010C844510DA11F841
:104D4000012B4FF06043D3F8803E13F0010FF2D0F7
:104D50004FF06043D3F8003E13F0010FE3D1EAE7D0
:104D60007047000008B503460B4A126842B10A4A70
:104D7000106803446A46934206D8074A136008BD88
:104D8000054A06491160F2E700F00CF90C230360B4
:104D90004FF0FF30F3E700BF20080020800800201C
:104DA0004FF0FF3070474FF400534B6000207047C6
:104DB000012070470020704708B50A480A4B03607D
:104DC0004FF4E133436000238360C36003610C222E
:104DD00042618361C36100F08FF800B908BDFCF740
:104DE00001FCFBE7240800200038014010B586B024
:104DF000002302930393049305930268174B9A428E
:104E000001D006B010BD03F558439A6942F48042C0
:104E10009A619A6902F480420092009A9A6942F07B
:104E200004029A619B6903F004030193019B4FF410
:104E3000007302930223039303230593084C02A9F2
:104E40002046FDF7EDFB4FF48063029300230393AC
:104E5000049302A92046FDF7E3FBD2E700380140A6
:104E60000008014010B504460268136923F440535A
:104E7000C1680B43136183680269134342691A4393
:104E80000168CB6823F4B05323F00C031343CB60C9
:104E90000268536923F4407381690B4353610268CC
:104EA000134B9A4220D0FDF79BFB024602EB820295
:104EB00002EB820263689B00B2FBF3F20D48A0FB99
:104EC00002314909642303FB11231B013233A0FB88
:104ED00003235B0903F0F00202EB011203F00F035E
:104EE000216813448B6010BDFDF78AFB0246DDE7A5
:104EF000003801401F85EB5160B310B5044690F8AF
:104F0000413013B3242384F841302268D36823F45A
:104F10000053D3602046FFF7A5FF2268136923F4EE
:104F2000904313612268536923F02A035361226876
:104F3000D36843F40053D36000206064202384F8D6
:104F4000413084F84230606310BD80F84030FFF794
:104F50004DFFD7E701207047FDF784FD0B480C4952
:104F60000C4A002302E0D458C4500433C4188C42C5
:104F7000F9D3094A094C002301E013600432A2422C
:104F8000FBD300F015F8FCF761FB70470000002030
:104F90004C0300208CCA00084C0300207C08002031
:104FA000FEE70000014B1868704700BF7801002041
:104FB00070B500260C4D0D4C641BA410A64209D1FF
:104FC00005F082FB00260A4D0A4C641BA410A64281
:104FD00005D170BD55F8043B98470136EEE755F80A
:104FE000043B98470136F2E784CA000884CA0008E7
:104FF00084CA000888CA00080A44914200F1FF33BD
:1050000000D1704710B511F8014B914203F8014FE0
:10501000F9D110BD884210B501EB020402D98442D7
:10502000234607D8431EA14208D011F8012B03F8EC
:10503000012FF8E7014602448A4200D110BD13F85F
:10504000014D02F8014DF7E703460244934200D1B7
:10505000704703F8011BF9E7002B2DE9F0471F46C5
:10506000BBBF03F100431F4600232D2388B0144625
:10507000129A109D1370149BDDF84CA023F02008A9
:10508000B8F1460F05D0B8F1450F00D10135022324
:1050900000E0032307AA049206AACDE902A2CDE903
:1050A000003522463B4601F083FDB8F1470F064626
:1050B00002D1119BDB0722D5B8F1460F06EB05099B
:1050C00010D13378302B0AD10022002320463946F4
:1050D000FBF76AFC18B9C5F10105CAF80050DAF807
:1050E000003099440022002320463946FBF75CFC3F
:1050F00008B1CDF81C903022079B4B4507D33046B2
:10510000079B159A9B1B136008B0BDE8F087591CDC
:1051100007911A70F0E70346F7B5002903F8022B50
:10512000B6BF2D222B224942092942702BDD0DF1F9
:105130000704A4460A2791FBF7F60A46A64607FB92
:105140001615632A05F13005314604F1FF340EF8D7
:10515000015CF0DC3031AEF1020504F8011C294697
:10516000441C61450AD30DF10902A2EB0E0265450C
:1051700088BF00221344181A03B0F0BD11F8012BA8
:1051800004F8012FEDE7302330318370C170031D27
:10519000F1E700002DE9F04F91B00C46DDF8688092
:1051A00016461F46054602F057FE03681846099347
:1051B000FAF7CEFF00230E93D8F800300A90073399
:1051C00023F0070303F1080294F81890D4F800B014
:1051D000C8F80020D3E90023C4E91223D4E9128AD5
:1051E0002AF000430B934FF0FF3240469C4B0B9943
:1051F000FBF70CFC70BB4FF0FF324046984B0B990D
:10520000FBF7E6FB30BB0022002340465146FBF78C
:10521000D5FB10B12D2384F84330924B9248B9F15D
:10522000470F94BF9846804603234FF0000A23613E
:105230002BF00403236033462146284600970FAA2B
:1052400000F0D4F9013040F090804FF0FF3011B001
:10525000BDE8F08F4246534640465146FBF7D6FB29
:1052600048B1BAF1000FB8BF2D238048B8BF84F809
:1052700043307F4BD3E7636809F0DF015A1C42D10A
:1052800006236360002206920EAACDE904920DAABD
:105290004BF4806303920DF13302CDE901322360B8
:1052A000636842460093284653460B91FFF7D4FEAD
:1052B0000B99804647290D9908D1C81C02DB636809
:1052C000994240DDA9F102095FFA89F9B9F1650F48
:1052D0001FD84A46013904F150000D91FFF71BFF1A
:1052E0000E9A82461318012A236102DC2268D20733
:1052F00001D5013323619DF83330002B9BD02D2342
:1053000084F8433097E74729BCD1002BBAD1012359
:10531000B7E7B9F1660F18D1002963680BDD216189
:1053200013B92268D00702D501330B4423614FF033
:10533000000AA165DFE713B92268D20701D502335D
:10534000F4E70123F2E74FF067090E9B994205DB72
:1053500023682161D807EAD54B1CE7E70029CCBFB9
:105360000122C1F102021344E0E723685A0507D481
:105370002369424631462846B84701302BD164E7BD
:10538000B9F1650F40F2DD80D4E91201002200235B
:10539000FBF70AFB002833D0012331462846354A63
:1053A000B84701303FF451AFDDE90D239A4202DBEB
:1053B0002368D8070FD5DDE9092331462846B847C9
:1053C00001303FF442AF4FF0000804F11A090E9B80
:1053D000013B434509DC23689B0700F10281E0683B
:1053E0000F9B9842B8BF184631E701234A46314621
:1053F0002846B84701303FF428AF08F10108E6E736
:105400000D9B002B38DC012331462846194AB8474A
:1054100001303FF41AAFDDE90D23134302D12368B5
:10542000D907D8D5DDE9092331462846B8470130E8
:105430003FF40BAF4FF0000904F11A0A0D9B5B42D9
:105440004B4501DC0E9B94E701235246314628462A
:10545000B84701303FF4F9AE09F10109EEE700BFAA
:10546000FFFFEF7FA4C10008A8C10008B0C1000879
:10547000ACC10008B4C100080E9AA36D9A42A8BF3F
:105480001A46002A914637DC4FF0000B29EAE979E9
:1054900004F11A02D4F858A0AAEB09035B4533DCE7
:1054A000DDE90D239A423BDB2368DA0738D40E9BF3
:1054B0000D99A3EB0A02A3EB01099145A8BF914600
:1054C000B9F1000F34DC4FF0000829EAE97904F162
:1054D0001A0ADDE90D239B1AA3EB090343457FF765
:1054E0007AAF0123524631462846B84701303FF48F
:1054F000ACAE08F10108ECE71346314642462846B7
:10550000B8470130C0D1A0E60123314628460B92AE
:10551000B84701303FF499AE0B9A0BF1010BB9E794
:105520003146DDE909232846B8470130BFD18CE672
:105530004B463146284608EB0A02B8470130C2D133
:1055400083E60E9A012A01DCDB0737D501234246A8
:1055500031462846B84701303FF477AEDDE90923EC
:1055600031462846B84701303FF46FAED4E9120106
:1055700000220023FBF718FAD8B90E9B08F10102AC
:10558000013B31462846B84701300ED15DE6012384
:105590004A4631462846B84701303FF456AE08F136
:1055A00001080E9B013B4345F1DC534604F15002D8
:1055B000E0E64FF0000804F11A09F2E70123424641
:1055C000DFE701234A4631462846B84701303FF419
:1055D0003CAE08F10108E3680F995B1A4345F0DC23
:1055E000FDE64FF0000804F11909F4E72DE9F04752
:1055F000164699468A680B6907469342B8BF134618
:10560000336091F843200C46DDF820800AB1013365
:1056100033602368990642BF3368023333602568DC
:1056200015F0060506D104F1190AE36832689B1AE1
:10563000AB4228DC94F84320131E226818BF0123D4
:1056400092062DD44946384604F14302C047013042
:1056500020D02368E56803F00603042B18BF00255B
:1056600032684FF00006A36808BFAD1A226908BF70
:1056700025EAE5759342C4BF9B1AED181A34B5426A
:105680001AD1002008E00123524649463846C04757
:10569000013003D14FF0FF30BDE8F0870135C4E79A
:1056A0003020E11881F843005A1C94F84510224438
:1056B000023382F84310C5E70123224649463846A3
:1056C000C0470130E6D00136D9E700002DE9FF4799
:1056D0000F7E9146782F80460C469A460C9D01F12C
:1056E000430207D8622F0AD8002F00F0D980582F24
:1056F00000F0A48004F1420584F842703AE0A7F17A
:105700006303152BF6D801A151F823F06557000863
:1057100079570008F5560008F5560008F5560008B8
:10572000F556000879570008F5560008F5560008A8
:10573000F5560008F556000887580008A9570008D4
:1057400069580008F5560008F5560008A9580008E1
:10575000F5560008A9570008F5560008F556000848
:10576000715800082B681A1D1B682A6004F1420555
:1057700084F842300123A4E020682968060601F17C
:1057800004030AD50E682B60002E03DA2D2376421F
:1057900084F843300A235E4819E00E6810F0400F89
:1057A0002B6018BF36B2EFE72B682068191D2960FF
:1057B000010601D51E6802E04606FBD51E886F2F44
:1057C0000CBF08230A235248002184F8431065685F
:1057D000002DA8BF2168A560A4BF21F004012160AD
:1057E0000EB9002D4DD01546B6FBF3F103FB116742
:1057F000C75D05F8017D3746BB420E46F4D9082B3C
:105800000BD12368DE0708D5236961689942DEBFA2
:10581000302305F8013C05F1FF35521B22614B4650
:1058200021464046CDF800A003AAFFF7DFFE013075
:105830004CD14FF0FF3004B0BDE8F087344881F818
:1058400045702968236851F8046B29601D0614D53A
:10585000DF0744BF43F0200323601EB9236823F011
:10586000200323601023AFE7236843F02003236065
:105870007823284884F84530E3E7590648BFB6B294
:10588000E6E71546BBE72B682668181D61692860A6
:1058900035061B6801D5196002E07006FBD519803A
:1058A000002315462361BAE72B6800211A1D2A60E0
:1058B0001D686268284602F0EDFA08B1401B60607E
:1058C00063682361002384F84330A8E72A464946E9
:1058D00040462369D0470130ABD023689B0713D4DF
:1058E000E068039B9842B8BF1846A4E701233246FC
:1058F00049464046D04701309BD00135E3680399C3
:105900005B1AAB42F2DCEBE7002504F11906F5E780
:10591000B6C10008C7C100082DE9F04F87B0039356
:105920008B6817465A1EB2F5AE7F85BF6FF4AE7511
:105930005B190023029388BF40F25D138B464FF042
:1059400000058CBF8B6002930B68804643F4F063C4
:105950004BF81C3B0C465E46AA46A946CDE90455C9
:105960000195A26852B13B681B784E2B64D8402B3E
:105970003CD8A3F12B01C8B20E283AD9B9F1000FD7
:1059800003D0236823F4807323600AF1FF3ABAF14D
:10599000010F00F213815E4500F2058101252846C2
:1059A00007B0BDE8F08FA3F161020D2AE6D801A18E
:1059B00051F822F0F35A00087D5900087D5900087B
:1059C0007D590008535B00082B5B00087D590008D7
:1059D0007D590008015B00087D5900087D590008C9
:1059E0007D5900087D590008B95A0008A3F1410209
:1059F000DBE70E29C2D801A050F821F0AB5A00080D
:105A00007D590008AB5A00083F5B00087D5900082B
:105A1000595A0008955A0008955A0008955A0008E6
:105A2000955A0008955A0008955A0008955A00089A
:105A3000955A0008955A00086E2B09D8602BB2D8E9
:105A4000542B77D0592B99D1072D97D1082529E0D0
:105A5000742B6FD0792BF6E72168C8051AD5029B05
:105A600021F08001216009F101091BB1013B0132E4
:105A70000293A260A368013BA36023690133236101
:105A80007B68013B002B7B6040F384803B680133E3
:105A90003B6066E71AEB050F7FF470AF226822F4D3
:105AA000C072226006F8013BE4E7226810067FF529
:105AB00065AF22F08002F4E7BAF1000F0ED1B9F120
:105AC000000F0ED1226802F4E061B1F5E06F08D159
:105AD00022F4F0624FF0010A2260E3E7BAF1020F0C
